:03000000020BC62A
:0C0BC600787FE4F6D8FD758156020C0D16
:040FDC00D2A07F051B
:080FE00000AE071FEE70F922BC
:0F0FB000D2A1120FDCC2A17F05120FE0C2A02256
:0C0FE800C2A1120FDCD2A17F05020FE0B5
:10000300C2A0A20A92A17F05120FE0120FDCC2A0C8
:07001300D2A17F05020FE0FE
:100F7E00120FDCA2A1920AC2A07F05120FE0A20AF4
:010F8E002240
:020E7200AD07CA
:100E7400E4FCC2A07F05120FE0ED30E704D2A180AC
:100E840002C2A17F05120FE0D2A0ED25E0FD7F058F
:090E9400120FE00CBC08DBC2A047
:010E9D002232
:100F0600E4FC120FDCED25E0FD30A103430501C230
:0C0F1600A07F05120FE00CBC08E8AF053E
:010F220022AC
:100CD900C190C111011C2801183C011B00011DFF15
:100CE9000117000219232802140000011600C10F80
:100F6B00438E4053890F758B40758DA2C28FD28EE5
:030F7B00D2AB22D4
:100FA000438E0475D7A075D6F6438E1043AF042246
:03001B00020A12C4
:100A1200C0E0C0F0C083C082C0D075D000C000C0AA
:0D0A220001C002C003C004C005C006C0072B
:100A2F000515E51570020514AE14FFE4FCFD7B5FA0
:100A3F007AEAF9F8C31204267004F514F515AE140A
:100A4F00AF157C017DF41203C3ED4C7003120F231D
:100A5F00AE14AF157C007D7D1203C3ED4C7002D236
:100A6F0010AE14AF157C007D321203C3ED4C7057DE
:100A7F00F51BE50AB4031BE50B14FF7401A8070867
:100A8F008002C333D8FCFFF51BE51D521BEF621B21
:100A9F00800FAF0A7401A807088002C333D8FCF592
:100AAF001BD3E513951AE51295194003431B08E56F
:100ABF0009D3951C4003431B10D3E5119518E5107E
:100ACF0094004003431B20AE14AF157C007D191218
:0C0ADF0003C3ED4C7003120B06120E4313
:100AEB00D007D006D005D004D003D002D001D0005F
:0B0AFB00D0D0D082D083D0F0D0E03209
:03006300020C523A
:100C5200C0E0C0F0C083C082C0D075D000C000C068
:0D0C620001C002C003C004C005C006C007E9
:100C6F00E4FDD3E5119518E5109400400D7D10209B
:100C7F000F0D0517D20FD21180055305EFC20F05C7
:100C8F0016E516B401028012D3E513951AE51295F5
:100C9F0019400CE516D394045005430520800353E7
:0F0CAF0005DFE516B405037516007F05120F5615
:100CBE00D007D006D005D004D003D002D001D0008A
:0B0CCE00D0D0D082D083D0F0D0E03234
:100EC200E4F5B1F5B27DFF7F04120F56E4FD7F0514
:100ED200120F56120F3F120FCE120F6B120FA0D22B
:020EE200AF223D
:10085300E4F550120EC230040C050A530A03D210F9
:10086300C204020925300516E50AB4030A050BE59F
:100873000BB40403750B01D210C20502092530061F
:1008830051E50A64037045E50B24FE6025146030CE
:100893002402703874F4250EF50E7401350DF50D30
:1008A300E50EB4D427E50DB43022750D03750EE8BB
:1008B300801A740A250FF50FB44611750F0A800CC0
:1008C300740A250CF50CB48203750C0AD210C20607
:1008D300805030074DE50A64037043E50B24FE6046
:1008E3002514602F24027036740C250EF50E74FE49
:1008F300350DF50DE50EB4F425E50DB40120750DA8
:100903002E750EE0801874F6250FF50F7010750F15
:100913003C800B74F6250CF50C7003750C78D21023
:10092300C207E50AB4020C300809120FBFB213C2A2
:1009330008D210E50A700C300909120FBFC209B2C0
:1009430012D210E50AB40108300905E4F517D211F3
:100953007F03120DBFAC07E412030E7B707ACE79CE
:10096300C8783E12015E1203428F09E509D3951C34
:1009730050047F338059E509C3945040047FFF80BE
:100983004EC37450951CFDE49400FCE4120309A8C3
:1009930004A905AA06AB07E4FFFE7D4C7C431202C3
:1009A30067C004C005C006C007C3E509951CFDE484
:1009B3009400FCE4120309D003D002D001D000124A
:1009C300015EE4FBFA794C784212006D1203421285
:1009D3000E9E301016C210855412855513C2AF12E5
:1009E3000D4F8E108F11D2AF120536E51D651B60BA
:1009F3000CE51BF4FD7F04120F56851B1D2011030C
:0F0A0300020859C211AD17E4FF120EE4020859A0
:100F5600C2AF53A01F8D80EFC43354E042A00053AC
:050F6600A01FD2AF2224
:100CF90020202CC0F9A4B0999282F88090FF8889AD
:100D09008C8E0000000000000000000000000000C0
:060D1900000000012300B0
:100E4300AF237401A807088002C333D8FCFD7F06D3
:100E5300120F56AF23052374242FF8E6242CF8E64B
:0E0E6300FD7F07120F56E523B40803E4F523C4
:010E7100225E
:100F3F00E4FF742C2FF8E6547FFE743C2FF8A606BE
:070F4F000FBF0AEE020FBF05
:0F0FBF007E007F087D0A7B007A00792402043CC3
:0B0FF40075D988E4F5D8F5F9F5E9227D
:060FFF0000007F24DFFE6C
:0110050022C8
:100F8F00E4FED290120FFFC290120FFF0EBE08F2B6
:010F9F00222F
:100D4F00E4F551120FF4120F8FD2DE30911130DF14
:100D5F00040551C2DFE551B40AF17EFF7FFF22C2C5
:100D6F00DEAFF9EFFEADE97C00E42DFDEC3EFCE4D7
:100D7F001203097B967A43798B783C12015EE4FB70
:100D8F00FA79407841120267C004C005C006C00757
:100D9F00AC51E412030E7B767AAF79B97842120127
:0F0DAF005ED003D002D001D00012006D120342BB
:010DBE002212
:100EE4008F518D52120FB07FA0120E72120F7EAF6F
:100EF40051120E72120F7EAF52120E72120F7E0238
:020F04000FE8F4
:020E13008F1E30
:100E1500120FB07FA0120E72120F7EAF1E120E724D
:100E2500120F7E120FB07FA1120E72120F7E120FDB
:0D0E3500068F1FD20A120003120FE8AF1F34
:010E4200228D
:030D1F0001563446
:100E9E008F51120FB07F90120E72120F7E7F401282
:100EAE000E72120F7EAF51120E72120F7E120FE8DB
:040EBE0085515622E2
:020DBF008F5152
:100DC100120FB07F90120E72120F7EE5514440FF58
:100DD100120E72120F7EAF56120E72120F7E120F8A
:100DE100E8120FB07F91120E72120F7E120F06756C
:100DF10052008F53C20A120003120F06EF2553F55A
:100E010053E43552F552120FE8E552C313E553137B
:010E1100FFE1
:010E120022BD
:100D2200C112C113010A00010B0101090B021000DB
:080D320072021238B20108FF41
:10053600E508650A602B120FBFE508B4030C850DAC
:1005460019850E1A850F1C850C18850A08E50AB44C
:10055600030F85190D851A0E851C0F85180C750B52
:1005660001E50A1470030206EA1470030207041474
:10057600700302079C2403600302085275240E20B0
:10058600120302060AAE12AF13E4FCFD7BA07A86C4
:100596007901F8D3120426500FAE12AF13E4FCFD16
:1005A600F812001E8F28800375280AC3E5139410DD
:1005B600E51294274027AE12AF13E4FCFD7BA07A28
:1005C600867901F812001EAC00AD01AE02AF03E45D
:1005D6007B107A27F9F812001E8F29800375290AE5
:1005E600AE12AF137C277D101203C37E037FE8CFC4
:1005F600CDCFCECCCE1203C3EF2410F52AAE12AF68
:100606001302080BAE12AF13E4FCFD7BA07A8679C9
:1006160001F8D3120426500FAE12AF13E4FCFDF816
:1006260012001E8F26800375260AC3E5139410E573
:100636001294274027AE12AF13E4FCFD7BA07A8606
:100646007901F812001EAC00AD01AE02AF03E47BE7
:10065600107A27F9F812001E8F27800375270AC320
:10066600E51394E8E5129403401CAE12AF137C2701
:100676007D101203C37E037FE8CFCDCFCECCCE1242
:1006860003C38F28800375280AC3E5139464E51213
:100696009400401CAE12AF137C037DE81203C37EA8
:1006A600007F64CFCDCFCECCCE1203C38F2980037B
:1006B60075290AC3E513940AE5129400401CAE128C
:1006C600AF137C007D641203C37E007F0ACFCDCFBB
:1006D600CECCCE1203C38F2A8003752A0AAE12AF80
:1006E6001302079275240CE509C394634003750948
:1006F60063E50975F00A84F52AE50902082F7524D1
:100706000B301330AE10AF117C007D641203C3EFC3
:100716002410F529AE10AF117C007D641203C37E50
:10072600007F0ACFCDCFCECCCE1203C38F2AAE1018
:10073600AF118058C3E5119464E5109400401CAED7
:1007460010AF117C037DE81203C37E007F64CFCD1A
:10075600CFCECCCE1203C38F29800375290AC3E5F9
:1007660011940AE5109400401CAE10AF117C007D78
:10077600641203C37E007F0ACFCDCFCECCCE120348
:10078600C38F2A8003752A0AAE10AF117C007D0A3A
:100796001203C38D2B2275240D850B25E50B24FE34
:1007A600607A14700302083724026003020852C3F9
:1007B600E50E9410E50D94274027AE0DAF0EE4FC30
:1007C600FD7BA07A867901F812001EAC00AD01AE61
:1007D60002AF03E47B107A27F9F812001E8F2980F6
:1007E6000375290AAE0DAF0E7C277D101203C37E5A
:1007F600037FE8CFCDCFCECCCE1203C3EF2410F5C6
:100806002AAE0DAF0E7C037DE81203C37E007F6423
:10081600CFCDCFCECCCE1203C38F2B2275290AE5BE
:100826000F75F00A84F52AE50F75F00A8485F02B1A
:100836002275290AE50C75F064842410F52AE50C66
:0C08460075F06484E5F075F00A84F52B71
:010852002283
:100D3A00024C0000024E0000C100C101C102C10301
:100B0600C20BC20CC20DC20E43B00F20B004D20BF2
:100B1600801320B104D20C800C20B204D20D8005C3
:100B260020B302D20E300B07200004D207801F200C
:100B36000B0E20000BC207E4F54EF54FC209800EDE
:100B4600300B0B300008054FE54F7002054E300C98
:100B560007200104D206801F200C0E20010BC206BE
:100B6600E4F54CF54DC208800E300C0B300108053B
:100B76004DE54D7002054C300D07200204D205806C
:100B860008200D05200202C205300E07200304D2FC
:100B9600048008200E05200302C204E54F641445B4
:100BA6004E7002D209E54D6414454C7002D208A27B
:0F0BB6000B9200A20C9201A20D9202A20E9203CA
:010BC500220D
:040D4A00025400004F
:0E0FCE00438E80438904E4F58AF58CC28D229F
:100F2300C28CAF8CEFFEAD8A7C00E42DF555EC3E10
:0C0F3300F554E4F58AF58CC28DD28C22B6
:100066000203AEE86480F8E933E83360110460F017
:10007600ED33EC337009E8FCE9FDEAFEEBFF220400
:1000860060DED3EB9FEA9EE99DE8C2E78CF0C2F7FB
:1000960095F0400CE8CCF8E9CDF9EACEFAEBCFFBC7
:1000A60012037985D0F05804700320D5B3E80470A4
:1000B600075002B2D50203B892D5EC0460F7E4CC3F
:1000C600C0E0C398F8603B94186008400DD0E0FB90
:1000D600020390E4FBFAC9FC8028E830E406E4C990
:1000E600FBE4CAFCE830E305E4C9CACBFCE85407E4
:1000F6006010F8C3E913F9EA13FAEB13FBEC13FCEF
:10010600D8F130F52FC3E49CFCEF9BFFEE9AFEED91
:1001160099FDD0E0FBEF4E4D4C701222DB0302033B
:10012600B5EC2CFCEF33FFEE33FEED33FDED30E79F
:10013600EB020390EF2BFFEE3AFEED39FDD0E0FB2C
:1001460050130BBB00030203B8ED13FDEE13FEEFD5
:0801560013FFEC13FC020390FF
:10015E00EC4D6011E8497017ED33EC3304600DE49B
:10016E00FCFFFEFD22E933E8330470F80203AE1201
:10017E00037958046009E4CC248150062850090202
:10018E0003B82840030203B5C0E0EB4A7044B980BF
:10019E0006D0E0FB0203A4EF4E701CBD8008EBFFFF
:1001AE00EAFEE9FD80EBE98DF0A4FEE5F0020247E0
:1001BE00E9CDF9EAFEEBFFEF89F0A4FCE5F0CE897C
:1001CE00F0A42EFFE435F0CD89F0A42DFEE435F039
:1001DE008067EF4E7005BD80D780C3EF8BF0A4AC67
:1001EE00F0EE8BF0A42CFCE435F0F8EF8AF0A42CA2
:1001FE00E5F038FCE433CB8DF0A42CFCE5F03BF8B5
:10020E00EE8AF0A42CFCE5F038F8E433CF89F0A4A4
:10021E002CFCE5F038CF3400CE89F0A42FFFE5F0AA
:10022E003EFEE433C98DF0A42EFEE5F039CD8AF002
:10023E00A42FFFE5F03EFEE43DFD33D0E0FB50077A
:10024E000BBB000F0203B8EC2CFCEF33FFEE33FEBA
:06025E00ED33FD020390E8
:100264000203B8EC5D046005E8590470030203AEB0
:10027400120379580460F6EC4860F2EC7004FDFE59
:10028400FF22C860DB2481C85009C398600250066D
:100294000203B59850CAF582E9294B4A7005AB822E
:1002A4000203A475F0007C1A7880C3EF9BEE9AEDEC
:1002B40099400DC3EF9BFFEE9AFEED99FDE842F0E5
:1002C400DC23ACF0D0E0FFD0E0FED0E0FDAB822038
:1002D400E7101BEB60BAEC2CFCEF33FFEE33FEEDC2
:1002E40033FD020390E803F830E705C0F075F00031
:1002F400EF2FFFEE33FEED33FD40B830E7C280AAA6
:1003040075F020800E75F010800575F0087D007E74
:10031400007F003392D530D503120418EC3340101B
:10032400EF33FFEE33FEED33FDEC33FCD5F0ED227D
:0E033400E5F0247EA2D513CC92E7CDCEFF22B9
:10034200EDD2E7CD33EC3392D524814006E4FFFEB3
:10035200FDFC22FCE4CFCECDCC24E0501174FF8012
:10036200EDC3CC13CCCD13CDCE13CECF13CF0470AF
:07037200F030D5DE02041893
:10037900E9D2E7C933E833F892D5EDD2E7CD33ECCA
:0703890033FC5002B2D52243
:10039000EC30E7100FBF000C0EBE00080DBD0004CE
:1003A0000BEB6014A2D5EB13FCED92E7FD2274FF7A
:1003B000FCFDFEFF22E480F8A2D574FF13FC7D80D3
:0303C000E480EFE7
:100BD200020853E493A3F8E493A34003F68001F2DE
:100BE20008DFF48029E493A3F85407240CC8C33324
:100BF200C4540F4420C8834004F456800146F6DFF3
:100C0200E4800B0102040810204080900CD9E47E9D
:100C1200019360BCA3FF543F30E509541FFEE493E7
:100C2200A360010ECF54C025E060A840B8E493A3AE
:100C3200FAE493A3F8E493A3C8C582C8CAC583CAD9
:100C4200F0A3C8C582C8CAC583CADFE9DEE780BE91
:010D4E0000A4
:1003C300BC000BBE0029EF8DF084FFADF022E4CC1E
:1003D300F875F008EF2FFFEE33FEEC33FCEE9DECE7
:1003E300984005FCEE9DFE0FD5F0E9E4CEFD22ED2D
:1003F300F8F5F0EE8420D21CFEADF075F008EF2F77
:10040300FFED33FD4007985006D5F0F222C398FD67
:050413000FD5F0EA2204
:10001E00C2D5E830E70FB2D5E4C39BFBE49AFAE40D
:10002E0099F9E498F8EC30E717B2D512005412049F
:10003E00A4E4C39BFBE49AFAE499F9E498F88003EC
:10004E001204A430D50DE4C39FFFE49EFEE49DFD93
:04005E00E49CFC2200
:0E041800C3E49FFFE49EFEE49DFDE49CFC22F5
:10042600EB9FF5F0EA9E42F0E99D42F0EC6480C84D
:0604360064809845F022ED
:10043C00EF4E6012EF60010EEDBB010B89828A83D7
:10044C00F0A3DFFCDEFA2289F05007F709DFFCA9E4
:0C045C00F022BBFEFCF309DFFCA9F0223B
:1004680075F008758200EF2FFFEE33FECD33CDCC4B
:1004780033CCC58233C5829BED9AEC99E5829840CE
:100488000CF582EE9BFEED9AFDEC99FC0FD5F0D6AB
:10049800E4CEFBE4CDFAE4CCF9A88222B800C1B9D5
:1004A8000059BA002DEC8BF084CFCECDFCE5F0CB13
:1004B800F97818EF2FFFEE33FEED33FDEC33FCEB4C
:1004C80033FB10D703994004EB99FB0FD8E5E4F907
:1004D800FA227818EF2FFFEE33FEED33FDEC33FCF4
:1004E800C933C910D7059BE99A4007EC9BFCE99AE8
:1004F800F90FD8E0E4C9FAE4CCFB2275F010EF2F2D
:10050800FFEE33FEED33FDCC33CCC833C810D7072C
:100518009BEC9AE899400AED9BFDEC9AFCE899F867
:0E0528000FD5F0DAE4CDFBE4CCFAE4C8F922FA
:00000001FF
