:030000000208E211
:0C08E200787FE4F6D8FD75814E020929EC
:100C7500E4FEC297EF1392A3EFC313FFD2970EBE04
:020C850008F075
:010C8700224A
:100C6100C29300C29700D29300120C75AF05120C0B
:040C710075C2932293
:100B0A00E4FDC29300C29700D29300120C75E4FF71
:100B1A00C297EDC313FD30A303430580D2970FBFDD
:100B2A0008EEC29300C29700D29700C2A300D2A3D4
:030B3A0000AF0504
:010B3D002295
:100BD800E4FD7F8E120C617F80120C617D207F8284
:0F0BE800120C617F84120C617D807F8E020C6184
:030C9B00120B0A2F
:0F0C9E00EFC4540F75F00AA4FEEF540F2EFF227F
:100C31007F81120C9B8F4C7F83120C9B8F4B7F8586
:090C4100120B0A120C9E8F4A22CC
:04005600D2A07F05B0
:08005A0000AE071FEE70F92251
:0F0D0300D2A1120056C2A17F0512005AC2A0222F
:0C0D2100C2A1120056D2A17F0502005AA8
:100C4A00C2A0A20292A17F0512005A120056C2A0A7
:070C5A00D2A17F0502005A40
:100CD100120056A2A19202C2A07F0512005AA202DE
:010CE10022F0
:020B3E00AD0701
:100B4000E4FCC2A07F0512005AED30E704D2A18078
:100B500002C2A17F0512005AD2A0ED25E0FD7F055B
:090B600012005A0CBC08DBC2A013
:010B69002269
:100BF700E4FC120056ED25E0FD30A103430501C2D8
:0C0C0700A07F0512005A0CBC08E8AF05E5
:010C130022BE
:050D3D00020305070997
:100AAE00C180C181011000010A00011914010B005F
:100ABE00011100010C00010F0001120002130000D1
:100ACE00021700000215FFFF020D000001080001D1
:020ADE0009000D
:100CAD0053A01F8D80EFC43354E042A0000053A029
:020CBD001F22F4
:100C8800538E7F5389F0758AB0758C3CC28DD28C97
:030C9800D2A922BC
:03000B00020C14D0
:060C1400C0E0C0F0C0D0FA
:100C1A000508E50875F01484E5F07004D201F508BA
:070C2A00D0D0D0F0D0E03281
:100BB500120B6A7DFF7F04120CADE4FD0F120CAD24
:100BC500120BD8120C887F33120B91E4F5B2F5B1F4
:030BD500D2AF227A
:10046800E50965106027120D12E510B40203E4F5E2
:100478000BE510B40309E4F50B850A1185190CE5A1
:1004880009B4030685110A850C19851009E51014AD
:10049800605014700302054F14700302066B2403A6
:1004A8006003020698E54A75F00A84F522E54A7564
:1004B800F00A8485F02375240AE54B75F00A84F563
:1004C80025E54B75F00A8485F02675270AE54C75F5
:1004D800F00A84F528E54C75F00A8485F029430F65
:1004E800012275220B3000047F0C80027F0F8F23BE
:1004F800AE13AF147C037DE81203C38C1E8D1FD38B
:10050800E51F9463E51E9400400FAE1EAF1F7C00EC
:100518007D641203C38F27800375271FAE1EAF1F8C
:100528007C007D641203C37E007F0ACFCDCFCECC82
:10053800CE1203C38F28AE1EAF1F7C007D0A1203A4
:10054800C38D29430F022275220DE50B1460411457
:1005580070030205FD2402600302066775231A75FD
:10056800261FAE17AF187C037DE81203C38C1E8DBF
:100578001FD3E51F9463E51E9400400FAE1EAF1F06
:100588007C007D641203C38F27804E75271F804926
:1005980075231C75261FAE15AF167C037DE8120364
:1005A800C38C1E8D1FAE15AF16E4FCFD7BFF7AFFD2
:1005B800F9F8C31204267004F51EF51FD3E51F943D
:1005C80063E51E9400400FAE1EAF1F7C007D6412D1
:1005D80003C38F27800375271FAE1EAF1F7C007DC6
:1005E800641203C37E007F0ACFCDCFCECCCE1203D8
:1005F800C38F28805D75231B850D1E850E1FD3E5CF
:100608001F94E7E51E9403400FAE1EAF1F7C037DC9
:10061800E81203C38F26800375261FAE1EAF1F7C0A
:10062800037DE81203C37E007F64CFCDCFCECCCE4E
:100638001203C38F27AE1EAF1F7C007D641203C355
:100648007E007F0ACFCDCFCECCCE1203C3EF2410CD
:10065800F528AE1EAF1F7C007D0A1203C38D294307
:100668000F042275220EE50B04F523E50B14600F29
:1006780004701DE4F528E511900D3D93F52922E558
:100688000C75F00A84F528E50C75F00A8485F029C4
:01069800223F
:1009E4008E1E8F1FD3E51F9518E51E9517400685AB
:1009F4001E17851F18C3E51F9516E51E951550068D
:100A0400851E15851F16AC0DAD0EE4120309E4FB1B
:100A1400FA79207841120267C004C005C006C007F5
:100A2400AC1EAD1FE4120309D003D002D001D000E4
:100A340012006DE4FBFA79A0784012015E120342C1
:050A44008E0D8F0E2253
:10069900E4F51D120BB51200031204687F80120BDA
:1006A9009112082CEF24FB601A24FD603914605064
:1006B9002405706EE510B40305E4F5108064751027
:1006C90003805FE5106403600D0510E51075F00304
:1006D9008485F010804CE51064036046050BE50B3A
:1006E9005401F50B803CE510B40102B200E5106439
:1006F90002702F050BE50B75F0038485F00B802242
:10070900E510B4031DE50B700D0511E51175F00534
:100719008485F011800C740A250CF50CB45A037504
:100729000C0A200106EF70030206AAE4F50F120C69
:1007390031200048E50A900D3D93FFE54C8FF08488
:10074900E5F0706B12096E8E138F141209E4AF195C
:100759007E00EF24FBFDEE34FFFCC3E5149DE51399
:100769009C4014EF2405FFEE33FED3E5149FE513F7
:100779009E5004051D8038E4F51D80337F01120069
:100789000E8F1AE51BC394804010E51A9480500A15
:1007990012096E8E138F141209E4E51AD39480405E
:1007A90005430F208003530FDF851A1B430F08C22F
:1007B90001120468E51DC394034003430F10D3E5F8
:1007C90014944FE51394004005751CFF8038C3E568
:1007D90014940BE51394005005751C338028E51417
:1007E90024F6FDE51334FFFCE41203097BFA7A7E53
:1007F900793A784012015EE4FBFA794C78421200AA
:100809006D1203428F1CAF1C120B91E50F6512701C
:10081900030206AAE50FF4FD7F04120CAD850F1241
:030829000206AA1A
:100AE00020202AC0F9A4B0999282F88090BFC7C68E
:100AF000898C8E0000000000000000000000000053
:060B0000000000012100CD
:100CF300438E0475D74075D6A2438E1043AF0422AA
:03006300020A4945
:100A4900C0E0C0F0C083C082C0D075D000C000C073
:0D0A590001C002C003C004C005C006C007F4
:100A6600AF217401A807088002C333D8FCFD7F06B6
:100A7600120CAD74222521F8E6242AF8E6FD7F073C
:0D0A8600120CAD0521E521B4080375210017
:100A9300D007D006D005D004D003D002D001D000B7
:0B0AA300D0D0D082D083D0F0D0E03261
:0F0D12007E007F087D1F7B007A00792202043C5F
:100B6A007544FE7545BF7546F77549FF120D121299
:100B7A000CF3E4FF742A2FF8E6547FFE743A2FF838
:060B8A00A6060FBF0AEEF3
:010B90002242
:0700030043D908E4F5D822FF
:060D360000007F24DFFE37
:010D3C002294
:100CE200E4FED290120D36C290120D360EBE08F2FC
:010CF20022DF
:10096E00120CE2E4F5F9F5E9C2DFD2DEF51EF51F51
:10097E0030910F30DFFA051FE51F7002051EC2DF32
:10098E0080EEAFF9EFFEADE97C00E42DFFEC3EFE0C
:10099E00AD07FCE41203097B967A43798B783C12FF
:1009AE00015EE4FBFA79407841120267C004C0058B
:1009BE00C006C007AC1EAD1FE41203097B987AAEC9
:1009CE0079B9784212015ED003D002D001D0001264
:0509DE00006D12034250
:0109E30022F1
:030B0600014D009E
:080D2D007F757EB8DEFEDFFCDD
:010D3500229B
:030CBF00120D2DE6
:0F0CC20020B2037F032220B3037F04227F00228E
:10082C00E4FD75B0FFD2C2D2C4C2B4120CC2EF60E8
:10083C0014120CBFEF24FE600A1460071460042429
:10084C000370027D10D2B4C2B5120CC2EF6020123C
:10085C000CBFEF24FE600E14600F146010240370A4
:10086C000E7D0F800A7D0E80067D0D80027D0CD2E0
:10087C00B5C2C2120CC2EF6023120D2D120CC2EFC6
:10088C0024FE600E14600F1460102403700E7D0B98
:10089C00800A7D0A80067D0980027D08D2C2C2C40E
:1008AC00120CC2EF6023120D2D120CC2EF24FE604D
:1008BC000E14600F1460102403700E7D07800A7DE7
:1008CC000680067D0580027D04ED654D60058D4D2D
:0508DC00AF05227F00C2
:0108E10022F4
:100B91008F1E120D037F90120B3E120CD17F40125B
:100BA1000B3E120CD1AF1E120B3E120CD1120D21B5
:040BB100851E4E222D
:02000E008F1E43
:10001000120D037F90120B3E120CD1E51E4440FFDF
:10002000120B3E120CD1AF4E120B3E120CD1120D20
:1000300021120D037F91120B3E120CD1120BF78F80
:100040001FC202120C4A120BF78F1FD202120C4A67
:05005000120D21AF1F9D
:010055002288
:100066000203AEE86480F8E933E83360110460F017
:10007600ED33EC337009E8FCE9FDEAFEEBFF220400
:1000860060DED3EB9FEA9EE99DE8C2E78CF0C2F7FB
:1000960095F0400CE8CCF8E9CDF9EACEFAEBCFFBC7
:1000A60012037985D0F05804700320D5B3E80470A4
:1000B600075002B2D50203B892D5EC0460F7E4CC3F
:1000C600C0E0C398F8603B94186008400DD0E0FB90
:1000D600020390E4FBFAC9FC8028E830E406E4C990
:1000E600FBE4CAFCE830E305E4C9CACBFCE85407E4
:1000F6006010F8C3E913F9EA13FAEB13FBEC13FCEF
:10010600D8F130F52FC3E49CFCEF9BFFEE9AFEED91
:1001160099FDD0E0FBEF4E4D4C701222DB0302033B
:10012600B5EC2CFCEF33FFEE33FEED33FDED30E79F
:10013600EB020390EF2BFFEE3AFEED39FDD0E0FB2C
:1001460050130BBB00030203B8ED13FDEE13FEEFD5
:0801560013FFEC13FC020390FF
:10015E00EC4D6011E8497017ED33EC3304600DE49B
:10016E00FCFFFEFD22E933E8330470F80203AE1201
:10017E00037958046009E4CC248150062850090202
:10018E0003B82840030203B5C0E0EB4A7044B980BF
:10019E0006D0E0FB0203A4EF4E701CBD8008EBFFFF
:1001AE00EAFEE9FD80EBE98DF0A4FEE5F0020247E0
:1001BE00E9CDF9EAFEEBFFEF89F0A4FCE5F0CE897C
:1001CE00F0A42EFFE435F0CD89F0A42DFEE435F039
:1001DE008067EF4E7005BD80D780C3EF8BF0A4AC67
:1001EE00F0EE8BF0A42CFCE435F0F8EF8AF0A42CA2
:1001FE00E5F038FCE433CB8DF0A42CFCE5F03BF8B5
:10020E00EE8AF0A42CFCE5F038F8E433CF89F0A4A4
:10021E002CFCE5F038CF3400CE89F0A42FFFE5F0AA
:10022E003EFEE433C98DF0A42EFEE5F039CD8AF002
:10023E00A42FFFE5F03EFEE43DFD33D0E0FB50077A
:10024E000BBB000F0203B8EC2CFCEF33FFEE33FEBA
:06025E00ED33FD020390E8
:100264000203B8EC5D046005E8590470030203AEB0
:10027400120379580460F6EC4860F2EC7004FDFE59
:10028400FF22C860DB2481C85009C398600250066D
:100294000203B59850CAF582E9294B4A7005AB822E
:1002A4000203A475F0007C1A7880C3EF9BEE9AEDEC
:1002B40099400DC3EF9BFFEE9AFEED99FDE842F0E5
:1002C400DC23ACF0D0E0FFD0E0FED0E0FDAB822038
:1002D400E7101BEB60BAEC2CFCEF33FFEE33FEEDC2
:1002E40033FD020390E803F830E705C0F075F00031
:1002F400EF2FFFEE33FEED33FD40B830E7C280AAA6
:1003040075F020800E75F010800575F0087D007E74
:10031400007F003392D530D503120418EC3340101B
:10032400EF33FFEE33FEED33FDEC33FCD5F0ED227D
:0E033400E5F0247EA2D513CC92E7CDCEFF22B9
:10034200EDD2E7CD33EC3392D524814006E4FFFEB3
:10035200FDFC22FCE4CFCECDCC24E0501174FF8012
:10036200EDC3CC13CCCD13CDCE13CECF13CF0470AF
:07037200F030D5DE02041893
:10037900E9D2E7C933E833F892D5EDD2E7CD33ECCA
:0703890033FC5002B2D52243
:10039000EC30E7100FBF000C0EBE00080DBD0004CE
:1003A0000BEB6014A2D5EB13FCED92E7FD2274FF7A
:1003B000FCFDFEFF22E480F8A2D574FF13FC7D80D3
:0303C000E480EFE7
:1008EE00020699E493A3F8E493A34003F68001F281
:1008FE0008DFF48029E493A3F85407240CC8C3330B
:10090E00C4540F4420C8834004F456800146F6DFD9
:10091E00E4800B0102040810204080900AAEE47EB1
:10092E00019360BCA3FF543F30E509541FFEE493CE
:10093E00A360010ECF54C025E060A840B8E493A395
:10094E00FAE493A3F8E493A3C8C582C8CAC583CAC0
:10095E00F0A3C8C582C8CAC583CADFE9DEE780BE78
:010B090000EB
:1003C300BC000BBE0029EF8DF084FFADF022E4CC1E
:1003D300F875F008EF2FFFEE33FEEC33FCEE9DECE7
:1003E300984005FCEE9DFE0FD5F0E9E4CEFD22ED2D
:1003F300F8F5F0EE8420D21CFEADF075F008EF2F77
:10040300FFED33FD4007985006D5F0F222C398FD67
:050413000FD5F0EA2204
:0E041800C3E49FFFE49EFEE49DFDE49CFC22F5
:10042600EB9FF5F0EA9E42F0E99D42F0EC6480C84D
:0604360064809845F022ED
:10043C00EF4E6012EF60010EEDBB010B89828A83D7
:10044C00F0A3DFFCDEFA2289F05007F709DFFCA9E4
:0C045C00F022BBFEFCF309DFFCA9F0223B
:00000001FF
